:0508690012086EE4FF1F
:0D086E005391DF8FB2E59130E5FBAFB22270
:10087B00D2A530A5FDC2A37F24120869D2A3C2A5BD
:01088B00224A
:0E088C00C2A43099FDC29912087B8F9980F4A6
:10080000758DF3438E10758780759872758920D227
:100810008E439506439402E4F5B475B302C2A37FF8
:1008200019120869EF4404FED2A3C2A37F0912087B
:100830006EAF0612086ED2A3C2A37F0312086E7FAA
:100840000112086E7F0112086ED2A3C2A37F11129B
:100850000869EF54F1FED2A3C2A37F0112086EEE25
:080860004402FF12086ED2A34E
:01086800226D
:0608A60012080002088C9C
:0300000002089A59
:0C089A00787FE4F6D8FD7581070208A6FF
:00000001FF
