:0208A3008F09BB
:1008A500AF091509EF600BE4FEEEC3942350F10E7A
:0208B50080F7CA
:0108B700221E
:0D08B8005391DF8FB2E59130E5FBAFB22226
:10087300AE07C2A37F201208B8AF061208B8D2A3EE
:0A088300D2A57F011208A3C2A5222E
:0808D1003099FDC2998F9922B4
:02088D00D2A4F3
:10088F003098FDC298859908AF08120873AF081207
:02089F0008D17E
:0208A10080ECE9
:10080000758DF3438E10758780759872758920D227
:100810008E439506439402E4F5B475B302C2A37FF8
:10082000191208B8E4FF1208B8EF4404FED2A3C2BC
:10083000A37F091208B8AF061208B8D2A3C2A37FDB
:10084000031208B87F011208B87F011208B8D2A3BA
:10085000C2A37F111208B8E4FF1208B8EF54F1FEEA
:10086000D2A3C2A37F011208B8EE440EFF1208B84B
:02087000D2A311
:010872002263
:0608D90012080002088D68
:030000000208C52E
:0C08C500787FE4F6D8FD7581090208D99F
:00000001FF
